:100000000C945E000C9486000C9486000C94860080
:100010000C9486000C9486000C9486000C94860048
:100020000C9486000C9486000C9486000C94860038
:100030000C9486000C9486000C9486000C94860028
:100040000C94CA020C9486000C9498020C947202D0
:100050000C9486000C9486000C9486000C94860008
:100060000C9486000C948600000000080002010039
:100070000003040700000000000000000000000072
:10008000250028002B0000000000240027002A0083
:10009000040404040404040402020202020203032E
:1000A0000303030301020408102040800102040836
:1000B00010200102040810201403790411241FBE2B
:1000C000CFEFD8E0DEBFCDBF21E0AAE1B1E001C0B3
:1000D0001D92A43DB207E1F711E0A0E0B1E0EAEA29
:1000E000FDE002C005900D92AA31B107D9F710E0EA
:1000F000CDE5D0E004C02197FE010E94B604CC35C6
:10010000D107C9F70E94FE030C94C8060C940000A6
:1001100090E0FC01EC55FF4F2491FC01E057FF4FAC
:100120008491882399F090E0880F991FFC01EA5789
:10013000FF4FA591B491FC01E458FF4F8591949134
:100140008FB7F894EC91E22BEC938FBF0895CF9288
:10015000DF92EF92FF920F931F93CF93DF936C0187
:100160007A018B01C0E0D0E0CE15DF0589F0D8011F
:100170006D918D01D601ED91FC910190F081E02D02
:10018000C6010995892B11F47E0102C02196ECCF9E
:10019000C701DF91CF911F910F91FF90EF90DF90FA
:1001A000CF900895089580E090E00895FC01538D6C
:1001B000448D252F30E0842F90E0821B930B541741
:1001C00010F0CF96089501970895FC01918D828DCE
:1001D000981761F0828DDF01A80FB11D5D968C919B
:1001E000928D9F5F9F73928F90E008958FEF9FEFA6
:1001F0000895FC01918D828D981731F0828DE80F62
:10020000F11D858D90E008958FEF9FEF0895FC011B
:10021000918D228D892F90E0805C9F4F821B9109E8
:100220008F739927089583E291E00E94070121E0EE
:10023000892B09F420E0822F0895FC01848DDF01D1
:10024000A80FB11DA35ABF4F2C91848D90E0019649
:100250008F739927848FA689B7892C93A089B18938
:100260008C9180648C93938D848D981306C0028842
:10027000F389E02D80818F7D80830895EF92FF9236
:100280000F931F93CF93DF93EC0181E0888F9B8DB9
:100290008C8D981305C0E889F989808185FD24C07B
:1002A000F62E0B8D10E00F5F1F4F0F731127E02EFE
:1002B0008C8DE8120CC00FB607FCFACFE889F989DB
:1002C000808185FFF5CFCE010E941D01F1CF8B8D7E
:1002D000FE01E80FF11DE35AFF4FF0820B8FEA8910
:1002E000FB898081806207C0EE89FF896083E8898D
:1002F000F98980818064808381E090E0DF91CF91F3
:100300001F910F91FF90EF900895CF93DF93EC0131
:10031000888D8823C9F0EA89FB89808185FD05C025
:10032000A889B9898C9186FD0FC00FB607FCF5CF5F
:10033000808185FFF2CFA889B9898C9185FFEDCFA7
:10034000CE010E941D01E7CFDF91CF91089580E09B
:1003500090E0892B29F00E94130181110C94000078
:100360000895833081F028F4813099F08230A1F033
:1003700008958730A9F08830B9F08430D1F48091A5
:1003800080008F7D03C0809180008F7780938000F4
:10039000089584B58F7702C084B58F7D84BD08959C
:1003A0008091B0008F7703C08091B0008F7D8093E3
:1003B000B00008951F93CF93DF93282F30E0F90109
:1003C000E859FF4F8491F901EC55FF4FD491F901A1
:1003D000E057FF4FC491CC23C9F0162F81110E9422
:1003E000B101EC2FF0E0EE0FFF1FE458FF4FA59195
:1003F000B4918FB7F894111105C09C91ED2FE09541
:10040000E92302C0EC91ED2BEC938FBFDF91CF91EC
:100410001F910895CF93DF9360E08CE00E94DA0192
:1004200060E088E00E94DA01C7E0D0E060E084E0AC
:100430000E94DA018091C00190E00C2E02C09595D7
:1004400087950A94E2F780FF02C061E001C060E096
:1004500088E00E94DA0161E084E00E94DA012197DD
:1004600028F761E08CE0DF91CF910C94DA018CE009
:100470000E94880087E00E94880088E00E9488002F
:1004800084E00E9488001092C0010E940A0260E08D
:1004900087E00C94DA013FB7F89480911F019091A6
:1004A0002001A0912101B091220126B5A89B05C091
:1004B0002F3F19F00196A11DB11D3FBFBA2FA92FE3
:1004C000982F8827820F911DA11DB11DBC01CD0160
:1004D00042E0660F771F881F991F4A95D1F708954C
:1004E0000E94B3061F920F920FB60F9211242F9302
:1004F0003F934F935F936F937F938F939F93AF93AC
:10050000BF93EF93FF9383E291E00E941D01FF915F
:10051000EF91BF91AF919F918F917F916F915F917B
:100520004F913F912F910F900FBE0F901F901895F4
:100530001F920F920FB60F9211242F938F939F93B8
:10054000EF93FF93E0913301F09134018081E091CA
:100550003901F0913A0182FD12C0908180913C01F5
:100560008F5F8F7320913D01821751F0E0913C0124
:10057000F0E0ED5DFE4F958F80933C0101C08081DE
:10058000FF91EF919F918F912F910F900FBE0F9040
:100590001F9018951F920F920FB60F9211242F9350
:1005A0003F938F939F93AF93BF9380911B01909143
:1005B0001C01A0911D01B0911E0130911A0123E090
:1005C000230F2D3720F40196A11DB11D05C026E88B
:1005D000230F0296A11DB11D20931A0180931B01C8
:1005E00090931C01A0931D01B0931E0180911F01E7
:1005F00090912001A0912101B09122010196A11DAD
:10060000B11D80931F0190932001A0932101B0930D
:100610002201BF91AF919F918F913F912F910F90A8
:100620000FBE0F901F901895CF93DF931092260165
:100630001092250188EE93E0A0E0B0E080932701BE
:1006400090932801A0932901B0932A018AE091E0B8
:10065000909324018093230185EC90E090933001E6
:1006600080932F0184EC90E09093320180933101CC
:1006700080EC90E0909334018093330181EC90E022
:10068000909336018093350182EC90E0909338018D
:100690008093370186EC90E090933A018093390182
:1006A00010923C0110923D0110923E0110923F01C8
:1006B0001092C10181E08093CE01C4E0C093CF01CC
:1006C0000E9437028091C001837F8093C0010E9405
:1006D0000A028091B00083688093B000C093B1009B
:1006E0001092B3008BE00E94880082E08093CC01DE
:1006F000C093CD010E9437028091C0018D7E80930E
:10070000C0010E940A028091B00083628093B00011
:10071000C093B1001092B40083E00E948800D3E03F
:10072000D093CA01D093CB010E9437028091C001BF
:100730008F758093C0010E940A0284B5836884BDCE
:1007400017BC86E00E948800C093C801D093C901FD
:100750000E9437028091C0018E7B8093C0010E946D
:100760000A0284B5836284BD18BC85E00E948800BB
:100770001092C3011092C2011092C5011092C401DF
:100780001092C7011092C60161E070E080E090E035
:100790000E94E905009789F09093C3018093C201FC
:1007A0001092C5011092C4012091C6013091C70179
:1007B000232BD1F4FC01108217C08091C2019091CB
:1007C000C301009711F00E9451051092C3011092CD
:1007D000C2011092C7011092C6011092C501109279
:1007E000C401DF91CF9108951092C7011092C60104
:1007F00068E171E0DF91CF910C94C106789484B5E3
:10080000826084BD84B5816084BD85B5826085BD0C
:1008100085B5816085BD80916E00816080936E009A
:10082000109281008091810082608093810080918C
:10083000810081608093810080918000816080933D
:1008400080008091B10084608093B1008091B000FD
:1008500081608093B00080917A00846080937A00F8
:1008600080917A00826080937A0080917A00816022
:1008700080937A0080917A00806880937A00109249
:10088000C100E0913301F091340182E08083E09176
:100890002F01F09130011082E0913101F09132018D
:1008A0008FEC808310923B01E0913701F091380189
:1008B00086E08083E0913501F0913601808180618E
:1008C0008083E0913501F0913601808188608083DA
:1008D000E0913501F0913601808180688083E0915C
:1008E0003501F091360180818F7D80830E94A701C0
:1008F000FDCF8091C2019091C3010C9451052F92BC
:100900003F924F925F926F927F928F929F92AF929F
:10091000BF92CF92DF92EF92FF920F931F93CF93EC
:10092000DF93CDB7DEB7CA1BDB0B0FB6F894DEBF83
:100930000FBECDBF09942A88398848885F846E84A9
:100940007D848C849B84AA84B984C884DF80EE80F3
:10095000FD800C811B81AA81B981CE0FD11D0FB6FC
:10096000F894DEBF0FBECDBFED010895EE0FFF1F5F
:100970000590F491E02D0994CF93DF938230910597
:1009800010F482E090E0E091D201F091D30120E0F8
:1009900030E0C0E0D0E0309711F14081518148173C
:1009A0005907C0F04817590761F482819381209755
:1009B00019F09B838A832BC09093D3018093D2013B
:1009C00026C02115310519F04217530718F49A0172
:1009D000BE01DF01EF010280F381E02DDCCF2115A4
:1009E000310509F1281B390B2430310590F412969A
:1009F0008D919C9113976115710521F0FB019383F3
:100A0000828304C09093D3018093D201FD0132967A
:100A100044C0FD01E20FF31F8193919322503109ED
:100A20002D933C933AC02091D0013091D101232BDA
:100A300041F420910201309103013093D1012093C0
:100A4000D00120910001309101012115310541F4BF
:100A50002DB73EB74091040150910501241B350B81
:100A6000E091D001F091D101E217F307A0F42E1B21
:100A70003F0B2817390778F0AC014E5F5F4F241702
:100A8000350748F04E0F5F1F5093D1014093D001BE
:100A90008193919302C0E0E0F0E0CF01DF91CF912C
:100AA00008950F931F93CF93DF93009709F48CC0A1
:100AB000FC013297138212820091D2011091D3016E
:100AC0000115110581F420813181820F931F20913E
:100AD000D0013091D1012817390779F5F093D10170
:100AE000E093D00171C0D80140E050E0AE17BF07DD
:100AF00050F412962D913C911397AD0121153105BB
:100B000009F1D901F3CF9D01DA013383228360819A
:100B10007181860F971F8217930769F4EC01288172
:100B20003981260F371F2E5F3F4F318320838A8103
:100B30009B8193838283452B29F4F093D301E09327
:100B4000D20142C01396FC93EE931297ED014991A6
:100B500059919E01240F351FE217F30771F480812C
:100B60009181840F951F029611969C938E9382819A
:100B7000938113969C938E931297E0E0F0E0D80156
:100B800012968D919C911397009719F0F8018C01A2
:100B9000F6CF8D919C9198012E5F3F4F820F931F4E
:100BA0002091D0013091D1012817390769F430978D
:100BB00029F41092D3011092D20102C01382128242
:100BC0001093D1010093D001DF91CF911F910F912C
:100BD0000895A0E0B0E0EFEEF5E00C948304EC01A2
:100BE000009721F4CB010E94BC04B8C0FC01E60FC1
:100BF000F71F9C0122503109E217F30708F4ACC03B
:100C0000D9010D911C91119706171707B0F0053007
:100C1000110508F49FC0C80104978617970708F4C8
:100C200099C002501109061B170B019311936D9384
:100C30007C93CF010E9451058DC05B01A01AB10ABF
:100C40004C01800E911EA091D201B091D30140E0E1
:100C500050E0E12CF12C109709F44AC0A815B90511
:100C6000D1F56D907C901197630182E0C80ED11C84
:100C7000CA14DB0480F1A3014A195B096A0182E00E
:100C8000C80ED11C1296BC9012971396AC91B5E089
:100C9000CB16D10440F0B282A38351834083D901A3
:100CA0006D937C930AC00E5F1F4FC301800F911F8D
:100CB000F90191838083EB2DFA2FE114F10431F0D7
:100CC000D7011396FC93EE93129744C0F093D3018F
:100CD000E093D2013FC08D919C911197481759071D
:100CE00008F4AC017D0112960D90BC91A02DB3CFFC
:100CF0008091D0019091D10188159905E1F44617B2
:100D00005707C8F48091000190910101009741F4C8
:100D10008DB79EB74091040150910501841B950B3E
:100D2000E817F907C8F4F093D101E093D001F90175
:100D3000718360830FC0CB010E94BC047C010097CB
:100D400059F0A801BE010E94B806CE010E945105CB
:100D5000C70104C0CE0102C080E090E0CDB7DEB78D
:100D6000EEE00C949F0481E090E0F8940C94C806A7
:100D7000FB01DC0102C001900D9241505040D8F7B8
:100D80000895FB01DC0101900D920020E1F7089528
:100D900010E0CDE5D0E004C0FE010E94B60421962B
:0A0DA000CE35D107C9F7F894FFCF54
:100DAA000000D4018000000000003E01A700D60028
:0A0DBA0085010701E500F9000000C3
:00000001FF
